:100000002CC050C0B8C2B7C24DC04CC04BC04AC0D3
:1000100049C048C047C065C245C044C043C042C093
:1000200041C000003A00370000003B0038000000EB
:100030003900360001010101010101010202020142
:1000400002040810204080040201000000000004A7
:100050000302010000001E05A00511241FBECFE50C
:10006000D1E0DEBFCDBF10E0A0E6B0E0E2E6FCE00C
:1000700002C005900D92A638B107D9F721E0A6E895
:10008000B0E001C01D92A530B207E1F710E0CCE26C
:10009000D0E003C02197FE01D2D5CB32D107D1F7F2
:1000A000E2D2D3C5ADCFAF92BF92CF92DF92EF92A3
:1000B000FF920F931F93CF93DF936C017B018B0112
:1000C000040F151FEB015E01AE18BF08C017D10762
:1000D00059F06991D601ED91FC910190F081E02DEC
:1000E000C6010995892B79F7C501DF91CF911F9141
:1000F0000F91FF90EF90DF90CF90BF90AF90089559
:100100008230A1F018F4813069F00895833019F03D
:10011000843029F008958FB58F778FBD08958FB5FE
:100120008F7DFBCF80B78F7780BF089580B78F7D9D
:10013000FBCF1F93CF93DF93282F30E0F901E65BCD
:10014000FF4F8491F901E15CFF4FD491F901EC5C20
:10015000FF4FC491CC23A1F0162F8111D1DFEC2FDA
:10016000F0E0EE0FFF1FE85DFF4FA591B4918FB750
:10017000F894EC91111108C0D095DE23DC938FBF69
:10018000DF91CF911F910895DE2BF8CF60E0809131
:10019000FC00CFDF84E090E00197F1F70895CF9362
:1001A000DF9390E0FC01E15CFF4F24918C5C9F4F5A
:1001B000FC0184918823D1F090E0880F991FFC0105
:1001C000EE5DFF4FA591B491FC01E85DFF4FC59135
:1001D000D49161110EC09FB7F8948C91E22FE095F5
:1001E0008E238C932881E223E8839FBFDF91CF91F8
:1001F00008958FB7F894EC91E22BEC938FBFF6CF74
:10020000CF93DF93CAEFD0E060E08A8192DF61E0B4
:100210008A81C5DF60E088818CDF61E08881BFDF93
:1002200061E08981BCDF61E08A8183DF84E090E066
:100230000197F1F7DF91CF9108953FB7F89480913E
:10024000CB009091CC00A091CD00B091CE0022B710
:1002500008B600FE05C02F3F19F00196A11DB11D83
:100260003FBFBA2FA92F982F8827BC01CD01620F5D
:10027000711D811D911D43E0660F771F881F991F17
:100280004A95D1F708952091D1003091D2002817D6
:10029000390771F49091CF008091D000981741F008
:1002A000E091CF00F0E0EA57FF4F808190E00895A1
:1002B0008FEF9FEF08950895EF92FF920F931F9392
:1002C000CF93DF93DC015C96ED90FC905D97E11499
:1002D000F10479F481E090E013969C938E93129749
:1002E00090E080E0DF91CF911F910F91FF90EF9010
:1002F00008955196ED91FC91529750968C9150979C
:10030000982F90950FB75E962C915E97122F1270D2
:1003100021FD6095F8942081112319F1282B208369
:10032000E7012197F1F728E0462F50E0308160FF88
:100330001AC0382B3083E7012197F1F7BA01759580
:100340006795215089F7112381F08081892380836B
:100350000FBF5C968D919C910197F1F781E090E041
:10036000C1CF2923DCCF3923E5CF9081892BEFCF73
:100370002091D1003091D2002817390769F480917B
:10038000D0002091CF0090E0805C9F4F821B9109AC
:1003900060E470E00BD4089590E080E0089520912F
:1003A000D1003091D20028173907B9F49091CF00CD
:1003B0008091D000981789F0E091CF00F0E0EA57E3
:1003C000FF4F80812091CF0030E02F5F3F4F2F7390
:1003D00033272093CF0090E008958FEF9FEF08958B
:1003E00090E080E00895FF920F931F93CF93DF93E7
:1003F000F62ED0E0C0E0082F10E0B8010C2E02C0AD
:10040000759567950A94E2F761708091FB0091DE23
:1004100061E08091FA008DDE60E0FF2081F0C7305E
:10042000D10569F48091FB00BADE2196C830D10570
:1004300021F7DF91CF911F910F91FF900895809147
:10044000FA0077DEF2CFFC0101900020E9F7319746
:10045000AF01481B590BBC018BED90E024CE8F926D
:100460009F92AF92BF920F931F93CF93DF93CDB71D
:10047000DEB7A1970FB6F894DEBF0FBECDBF19A2AD
:10048000423008F44AE08E010F5D1F4F842E912CFC
:10049000B12CA12CA50194019CD3E62FB901CA016E
:1004A000EA30ECF4E05DD801EE938D01232B242B90
:1004B000252B81F790E080E0109711F0CD01C3DF8C
:1004C000A1960FB6F894DEBF0FBECDBFDF91CF91DE
:1004D0001F910F91BF90AF909F908F900895E95C0E
:1004E000E2CF1F920F920FB60F9211242F933F93DA
:1004F0008F939F93AF93BF938091C7009091C80053
:10050000A091C900B091CA003091C60026E0230F27
:100510002D3758F50296A11DB11D2093C60080937A
:10052000C7009093C800A093C900B093CA008091FF
:10053000CB009091CC00A091CD00B091CE0001965F
:10054000A11DB11D8093CB009093CC00A093CD0052
:10055000B093CE00BF91AF919F918F913F912F911A
:100560000F900FBE0F901F90189529E8230F039648
:10057000A11DB11DD2CF1F920F920FB60F92112461
:100580002F933F934F935F936F937F938F939F939B
:10059000AF93BF93EF93FF93E091D100F091D2001E
:1005A000309749F0A685B7858585968D91FF14C053
:1005B0009C918923A1F4FF91EF91BF91AF919F91FD
:1005C0008F917F916F915F914F913F912F910F90FC
:1005D0000FBE0F901F9018959C91892361F7A389F6
:1005E000B4899C918589809589238C938689978984
:1005F0000197F1F7608D718DA685B785558538E037
:1006000020E0CB010197F1F7822F90E09595879537
:10061000282F4C91452309F02068315091F7868DA1
:1006200081FD20958091D00090E001968F739927ED
:100630003091CF00381799F0A091D000B0E0AA57C0
:10064000BF4F2C938093D000828D938D0197F1F74B
:10065000A389B4898C919589892B8C93ACCF868D95
:100660008160868FF1CF789480B7826080BF80B739
:10067000816080BF83B7826083BF83B7816083BF9F
:1006800089B7816089BF1EBC8EB582608EBD8EB574
:1006900081608EBD8FB581608FBD329A319A30985E
:1006A000379A1092F6001092F5001092F400109212
:1006B000F3001092F2001092F1008EE090E090931F
:1006C000F8008093F7009091E7009B30B8F521E0A7
:1006D00030E03093F2002093F1004CE050E0509372
:1006E000F4004093F3003093F6002093F5008BB7AD
:1006F00020E1983008F020E2822B8BBF22E330E02B
:10070000983030F020E430E09B3010F030E020E012
:100710003093EF002093EE00492F50E0983008F01E
:1007200076C181E001C0880F9A95EAF78093F000C6
:100730008091F7009091F8000197F1F78091F50012
:100740009091F600892B49F1E091D100F091D2000F
:1007500020E0EB3DF20709F1309739F0A389B48925
:100760009C918589809589238C938091F9008E7F57
:100770008093F9001092D0001092CF008BED90E0A2
:100780009093D2008093D100E091EE00F091EF00C1
:1007900080819091F000892B8083E3EDF0E088E088
:1007A000DF011D928A95E9F78091D3008F788065EB
:1007B0008093D3008091D400807885618093D400A9
:1007C0008091D500807C86618093D5008091D60091
:1007D000807C84628093D6008091D700807F856082
:1007E0008093D7008091D800887F86608093D8005E
:1007F0008091D9008F7080628093D90001DD60E024
:100800008EEBF1DDC3EDD0E060E08991ECDDB0E08E
:10081000CB3DDB07C9F7BADC61E082E0C0DC812CAC
:10082000912C5401839430E0232E30E0332EE8DC09
:1008300061E08FEBD8DD03ED10E0D0E0C0E0D12C1B
:1008400061E08091FA0075DC60E08091FA0071DC73
:100850002091FB0030E0F901E65BFF4F8491F90144
:10086000E15CFF4FC490F901EC5CFF4F749077207E
:1008700009F4D7C0811144DCE72DF0E0EE0FFF1F33
:10088000E25DFF4FA591B491EC91D501C4010C2E0E
:1008900004C0880F991FAA1FBB1F0A94D2F7CE224B
:1008A00009F4BFC0D82A2196C830D10509F0C8CFB5
:1008B000D801DD928D01B0E00B3D1B0709F0BDCFE3
:1008C00065DC9091D300892F829587706AE054D1BE
:1008D0009F70980F9093FD009091D400892F82957E
:1008E00087706AE049D19F70980F9093FE009091B5
:1008F000D500892F829583706AE03ED19F70980F52
:100900009093FF008091D8008770809300019091B0
:10091000D600892F829583706AE02ED19F70980F40
:10092000909301019091D70094FB882780F96AE0A9
:1009300023D19F70980F909302012091D900822FAC
:1009400082958F7090E06AE070E01FD12F70820F67
:10095000911D8053984F909304018093030182E787
:1009600090E071DD6091FF0070E090E080E04AE08F
:1009700076DD81E890E067DD6091FE0070E090E058
:1009800080E04AE06CDD81E890E05DDD6091FD0093
:1009900070E090E080E04AE062DD83E890E053DDC3
:1009A0004CDC6B017C0188EE482E83E0582E612CD4
:1009B000712C43DC6C197D098E099F09683E7340D8
:1009C00081059105B0F3E1E04E1A51086108710804
:1009D000F8EECF0EF3E0DF1EE11CF11C41145104D0
:1009E0006104710431F78091FE00803119F461E0F7
:1009F00082E09FDB8091FE00813118F060E082E0B0
:100A000098DB2114310409F412CFFADA10CF2AE06E
:100A100030E0241B350B81E001C0880F2A95EAF7EE
:100A200085CED501C4010C2E04C0880F991FAA1FC2
:100A3000BB1F0A94D2F78095D82235CF83E08093EC
:100A4000FA0088E08093FB0087E08093FC00D8DB0D
:100A500060E08EE8C8DC60E080E0C5DC97DBD0DBDE
:100A600060E080E9C0DC60E080E0BDDC8FDB1092FC
:100A7000DE001092DD0088EE93E0A0E0B0E080930D
:100A8000DF009093E000A093E100B093E20084E6E1
:100A900090E09093DC008093DB001092F2001092C3
:100AA000F1001092F4001092F3001092F6001092F0
:100AB000F5001092F8001092F7006091F9006E7F37
:100AC0006D7F6093F9006695617081E0682780E032
:100AD00030DB61E080E063DBEFE3F0E0E491E093A2
:100AE000EB00E4E3F0E0E491F0E0EE0FFF1FE85DDF
:100AF000FF4F859194919093ED008093EC0060E01E
:100B000081E04DDB8091F90081FD03C061E081E06F
:100B100010DB81E08093E700E0E4F0E0E491E09313
:100B2000E800E5E3F0E0E491F0E0EE0FFF1FE25DA6
:100B3000FF4F859194919093EA008093E900089586
:100B400084E690E09093DC008093DB008091D100FC
:100B50009091D2008B5D904071F4E091EE00F091A5
:100B6000EF0090818091F00080958923808310921E
:100B7000D2001092D1000895002480FD060E660F69
:100B800011F08695D1F7802D08950024552704C0D3
:100B9000080E591F880F991F009729F076956795C1
:100BA000B8F37105B9F7802D952F089597FB072E9F
:100BB00016F4009406D077FD08D02DD007FC05D0A0
:100BC0003EF4909581959F4F0895709561957F4F64
:100BD0000895A1E21A2EAA1BBB1BFD010DC0AA1F7E
:100BE000BB1FEE1FFF1FA217B307E407F50720F096
:100BF000A21BB30BE40BF50B661F771F881F991F11
:100C00001A9469F760957095809590959B01AC0159
:100C1000BD01CF010895AA1BBB1B51E107C0AA1F4C
:100C2000BB1FA617B70710F0A61BB70B881F991F8D
:100C30005A95A9F780959095BC01CD010895EE0FC6
:100C4000FF1F0590F491E02D099410E0CCE2D0E074
:100C500003C0FE01F4DF2196CD32D107D1F7F8941D
:020C6000FFCFC4
:100C6200000000005C015300F0015B01B801CF01FC
:100C7200430143757272656E742054696D653A2042
:060C8200003A000D0A001B
:00000001FF
